{
  "contractName": "RegistrationProxy",
  "abi": [
    {
      "constant": false,
      "inputs": [
        {
          "internalType": "contract ENSRegistry",
          "name": "ens",
          "type": "address"
        },
        {
          "internalType": "contract Resolver",
          "name": "resolver",
          "type": "address"
        },
        {
          "internalType": "bytes32",
          "name": "domain",
          "type": "bytes32"
        },
        {
          "internalType": "bytes32",
          "name": "label",
          "type": "bytes32"
        },
        {
          "internalType": "address",
          "name": "addr",
          "type": "address"
        }
      ],
      "name": "registerENS",
      "outputs": [],
      "payable": false,
      "stateMutability": "nonpayable",
      "type": "function"
    }
  ],
  "bytecode": "0x608060405234801561001057600080fd5b5061031f806100206000396000f3fe608060405234801561001057600080fd5b506004361061002b5760003560e01c8063cf07c3a814610030575b600080fd5b610074600480360360a081101561004657600080fd5b506001600160a01b038135811691602081013582169160408201359160608101359160809091013516610076565b005b604080516020808201869052818301859052825180830384018152606083018085528151918301919091206302571be360e01b9091526064830187905292516000926001600160a01b038a16926302571be392608480840193829003018186803b1580156100e357600080fd5b505afa1580156100f7573d6000803e3d6000fd5b505050506040513d602081101561010d57600080fd5b50516040805163d22057a960e01b81526004810187905230602482015290519192506001600160a01b0383169163d22057a99160448082019260009290919082900301818387803b15801561016157600080fd5b505af1158015610175573d6000803e3d6000fd5b50505050866001600160a01b0316631896f70a83886040518363ffffffff1660e01b815260040180838152602001826001600160a01b03166001600160a01b0316815260200192505050600060405180830381600087803b1580156101d957600080fd5b505af11580156101ed573d6000803e3d6000fd5b50505050856001600160a01b031663d5fa2b0083856040518363ffffffff1660e01b815260040180838152602001826001600160a01b03166001600160a01b0316815260200192505050600060405180830381600087803b15801561025157600080fd5b505af1158015610265573d6000803e3d6000fd5b50505050866001600160a01b0316635b0fc9c383856040518363ffffffff1660e01b815260040180838152602001826001600160a01b03166001600160a01b0316815260200192505050600060405180830381600087803b1580156102c957600080fd5b505af11580156102dd573d6000803e3d6000fd5b505050505050505050505056fea265627a7a72315820a14863694f3d114029dea5bf3ef046d05831139626107e8e405aaed8e8efd8bf64736f6c634300050b0032",
  "source": "pragma solidity ^0.5.0;\n\nimport \"@ensdomains/ens/contracts/ENSRegistry.sol\";\nimport \"@ensdomains/ens/contracts/FIFSRegistrar.sol\";\nimport \"@ensdomains/resolver/contracts/Resolver.sol\";\n\n\ncontract RegistrationProxy\n{\n\tfunction registerENS(\n\t\tENSRegistry ens,\n\t\tResolver    resolver,\n\t\tbytes32     domain,\n\t\tbytes32     label,\n\t\taddress     addr)\n\texternal\n\t{\n\t\t// compute nodeHash\n\t\tbytes32 node = keccak256(abi.encode(domain, label));\n\t\t// get FIFSRegistrar for this domain\n\t\tFIFSRegistrar fifs = FIFSRegistrar(ens.owner(domain));\n\t\t// register new label\n\t\tfifs.register(label, address(this));\n\t\t// setup node & give ownership\n\t\tens.setResolver(node, address(resolver));\n\t\tresolver.setAddr(node, addr);\n\t\tens.setOwner(node, addr);\n\t}\n}\n",
  "sourcePath": "/home/amxx/Work/iExec/code/iexec-fifsregistration/contracts/registrationProxy.sol",
  "compiler": {
    "name": "solc",
    "version": "0.5.11+commit.c082d0b4.Emscripten.clang"
  },
  "schemaVersion": "3.0.16",
  "updatedAt": "2019-09-19T08:48:35.573Z",
  "devdoc": {
    "methods": {}
  },
  "userdoc": {
    "methods": {}
  }
}